{
  "abi": [
    {
      "inputs": [
        {
          "internalType": "contract IWorld",
          "name": "_world",
          "type": "address"
        },
        {
          "internalType": "address",
          "name": "_components",
          "type": "address"
        }
      ],
      "stateMutability": "nonpayable",
      "type": "constructor"
    },
    {
      "inputs": [],
      "name": "Ownable__NotOwner",
      "type": "error"
    },
    {
      "inputs": [],
      "name": "Ownable__NotTransitiveOwner",
      "type": "error"
    },
    {
      "anonymous": false,
      "inputs": [
        {
          "indexed": false,
          "internalType": "address",
          "name": "caller",
          "type": "address"
        },
        {
          "indexed": false,
          "internalType": "uint32",
          "name": "x",
          "type": "uint32"
        },
        {
          "indexed": false,
          "internalType": "uint32",
          "name": "y",
          "type": "uint32"
        },
        {
          "indexed": false,
          "internalType": "uint256",
          "name": "entity",
          "type": "uint256"
        },
        {
          "indexed": false,
          "internalType": "uint8",
          "name": "color",
          "type": "uint8"
        }
      ],
      "name": "Coloring",
      "type": "event"
    },
    {
      "anonymous": false,
      "inputs": [
        {
          "indexed": true,
          "internalType": "address",
          "name": "previousOwner",
          "type": "address"
        },
        {
          "indexed": true,
          "internalType": "address",
          "name": "newOwner",
          "type": "address"
        }
      ],
      "name": "OwnershipTransferred",
      "type": "event"
    },
    {
      "inputs": [
        {
          "internalType": "bytes",
          "name": "args",
          "type": "bytes"
        }
      ],
      "name": "execute",
      "outputs": [
        {
          "internalType": "bytes",
          "name": "",
          "type": "bytes"
        }
      ],
      "stateMutability": "nonpayable",
      "type": "function"
    },
    {
      "inputs": [
        {
          "internalType": "uint256",
          "name": "entity",
          "type": "uint256"
        },
        {
          "components": [
            {
              "internalType": "uint32",
              "name": "x",
              "type": "uint32"
            },
            {
              "internalType": "uint32",
              "name": "y",
              "type": "uint32"
            },
            {
              "internalType": "uint8",
              "name": "color",
              "type": "uint8"
            }
          ],
          "internalType": "struct Color",
          "name": "placeConfig",
          "type": "tuple"
        }
      ],
      "name": "executeTyped",
      "outputs": [
        {
          "internalType": "bytes",
          "name": "",
          "type": "bytes"
        }
      ],
      "stateMutability": "nonpayable",
      "type": "function"
    },
    {
      "inputs": [],
      "name": "owner",
      "outputs": [
        {
          "internalType": "address",
          "name": "",
          "type": "address"
        }
      ],
      "stateMutability": "view",
      "type": "function"
    },
    {
      "inputs": [
        {
          "internalType": "address",
          "name": "account",
          "type": "address"
        }
      ],
      "name": "transferOwnership",
      "outputs": [],
      "stateMutability": "nonpayable",
      "type": "function"
    }
  ],
  "bytecode": {
    "object": "0x60806040523480156200001157600080fd5b50604051620011e8380380620011e88339810160408190526200003491620001dc565b8181620000413362000149565b6001600160a01b03811615620000585780620000bd565b816001600160a01b031663ba62fbe46040518163ffffffff1660e01b8152600401602060405180830381865afa15801562000097573d6000803e3d6000fd5b505050506040513d601f19601f82011682018060405250810190620000bd91906200021b565b600080546001600160a01b039283166001600160a01b0319918216811790925560018054938616938216841790557ff67304f10c7772c78e439bc5cb07781db345424de8878c18100fdaa64d197a87805482169093179092557ff67304f10c7772c78e439bc5cb07781db345424de8878c18100fdaa64d197a8680549092161790555050505062000242565b7f8a22373512790c48b83a1fe2efdd2888d4a917bcdc24d0adf63e60f67168046080546040516001600160a01b038481169216907f8be0079c531659141344cd1fd0a4f28419497f9722a3daafe3b4186f6b6457e090600090a380546001600160a01b0319166001600160a01b0392909216919091179055565b6001600160a01b0381168114620001d957600080fd5b50565b60008060408385031215620001f057600080fd5b8251620001fd81620001c3565b60208401519092506200021081620001c3565b809150509250929050565b6000602082840312156200022e57600080fd5b81516200023b81620001c3565b9392505050565b610f9680620002526000396000f3fe608060405234801561001057600080fd5b506004361061004c5760003560e01c806309c5eabe1461005157806316c963441461007a5780638da5cb5b1461008d578063f2fde38b146100ba575b600080fd5b61006461005f366004610a02565b6100cf565b6040516100719190610af0565b60405180910390f35b610064610088366004610b2b565b6100fe565b610095610652565b60405173ffffffffffffffffffffffffffffffffffffffff9091168152602001610071565b6100cd6100c8366004610bbd565b610697565b005b6060600080838060200190518101906100e89190610bf3565b915091506100f682826100fe565b949350505050565b60008054606091906101469073ffffffffffffffffffffffffffffffffffffffff167f8666b156e97db678d48e9d3087169adffba38e0e82594befe63d39198523bb3a610713565b6040517f0ff4c9160000000000000000000000000000000000000000000000000000000081526004810186905290915060009073ffffffffffffffffffffffffffffffffffffffff831690630ff4c91690602401600060405180830381865afa1580156101b7573d6000803e3d6000fd5b505050506040513d6000823e601f3d9081017fffffffffffffffffffffffffffffffffffffffffffffffffffffffffffffffe01682016040526101fd9190810190610c75565b9050836040015160f81b81604001518560000151836000015187602001516102259190610d72565b61022f9190610d9a565b63ffffffff168151811061024557610245610dbe565b60200101907effffffffffffffffffffffffffffffffffffffffffffffffffffffffffffff1916908160001a9053506040517f1860407a00000000000000000000000000000000000000000000000000000000815273ffffffffffffffffffffffffffffffffffffffff831690631860407a906102c89088908590600401610ded565b600060405180830381600087803b1580156102e257600080fd5b505af11580156102f6573d6000803e3d6000fd5b5050505060006103193373ffffffffffffffffffffffffffffffffffffffff1690565b60008054919250906103619073ffffffffffffffffffffffffffffffffffffffff167f8900e57ac2ff61c328bbaa69d2071a542ae5ff48c693375a49fd2937c1ef8332610713565b6040517fcccf7a8e0000000000000000000000000000000000000000000000000000000081526004810184905290915060009073ffffffffffffffffffffffffffffffffffffffff83169063cccf7a8e90602401602060405180830381865afa1580156103d2573d6000803e3d6000fd5b505050506040513d601f19601f820116820180604052508101906103f69190610e36565b6104165760405180604001604052806000815260200160008152506104a4565b6040517f0ff4c9160000000000000000000000000000000000000000000000000000000081526004810184905273ffffffffffffffffffffffffffffffffffffffff831690630ff4c916906024016040805180830381865afa158015610480573d6000803e3d6000fd5b505050506040513d601f19601f820116820180604052508101906104a49190610e58565b80516020820151919250906104bb9061012c610ea7565b4211610528576040517f08c379a000000000000000000000000000000000000000000000000000000000815260206004820152601a60248201527f596f75207374696c6c2068617665206120636f6f6c646f776e2100000000000060448201526064015b60405180910390fd5b8273ffffffffffffffffffffffffffffffffffffffff16638bbf68fe85604051806040016040528085600161055d9190610ea7565b8152426020918201526040517fffffffff0000000000000000000000000000000000000000000000000000000060e086901b16815260048101939093528151602484015201516044820152606401600060405180830381600087803b1580156105c557600080fd5b505af11580156105d9573d6000803e3d6000fd5b505089516020808c01516040808e0151815133815263ffffffff958616948101949094529390911690820152606081018d905260ff90911660808201527f2fb1934fdb3c9527de6306dfd9edfbf04d42e4f02a9765ab882cdc9f2ae573d5925060a001905060405180910390a150505050505092915050565b60006106927f8a22373512790c48b83a1fe2efdd2888d4a917bcdc24d0adf63e60f6716804605473ffffffffffffffffffffffffffffffffffffffff1690565b905090565b7f8a22373512790c48b83a1fe2efdd2888d4a917bcdc24d0adf63e60f6716804605473ffffffffffffffffffffffffffffffffffffffff163314610707576040517f2f7a8ee100000000000000000000000000000000000000000000000000000000815260040160405180910390fd5b61071081610861565b50565b6040517ffbdfa1ea00000000000000000000000000000000000000000000000000000000815260048101829052600090819073ffffffffffffffffffffffffffffffffffffffff85169063fbdfa1ea90602401600060405180830381865afa158015610783573d6000803e3d6000fd5b505050506040513d6000823e601f3d9081017fffffffffffffffffffffffffffffffffffffffffffffffffffffffffffffffe01682016040526107c99190810190610eba565b90508051600003610836576040517f08c379a000000000000000000000000000000000000000000000000000000000815260206004820152601160248201527f6964206e6f742072656769737465726564000000000000000000000000000000604482015260640161051f565b6108578160008151811061084c5761084c610dbe565b602002602001015190565b9150505b92915050565b7f8a22373512790c48b83a1fe2efdd2888d4a917bcdc24d0adf63e60f6716804608054604051610710928492909173ffffffffffffffffffffffffffffffffffffffff8085169216907f8be0079c531659141344cd1fd0a4f28419497f9722a3daafe3b4186f6b6457e090600090a380547fffffffffffffffffffffffff00000000000000000000000000000000000000001673ffffffffffffffffffffffffffffffffffffffff92909216919091179055565b7f4e487b7100000000000000000000000000000000000000000000000000000000600052604160045260246000fd5b6040516060810167ffffffffffffffff8111828210171561096757610967610915565b60405290565b604051601f82017fffffffffffffffffffffffffffffffffffffffffffffffffffffffffffffffe016810167ffffffffffffffff811182821017156109b4576109b4610915565b604052919050565b600067ffffffffffffffff8211156109d6576109d6610915565b50601f017fffffffffffffffffffffffffffffffffffffffffffffffffffffffffffffffe01660200190565b600060208284031215610a1457600080fd5b813567ffffffffffffffff811115610a2b57600080fd5b8201601f81018413610a3c57600080fd5b8035610a4f610a4a826109bc565b61096d565b818152856020838501011115610a6457600080fd5b81602084016020830137600091810160200191909152949350505050565b60005b83811015610a9d578181015183820152602001610a85565b50506000910152565b60008151808452610abe816020860160208601610a82565b601f017fffffffffffffffffffffffffffffffffffffffffffffffffffffffffffffffe0169290920160200192915050565b602081526000610b036020830184610aa6565b9392505050565b63ffffffff8116811461071057600080fd5b60ff8116811461071057600080fd5b6000808284036080811215610b3f57600080fd5b8335925060607fffffffffffffffffffffffffffffffffffffffffffffffffffffffffffffffe082011215610b7357600080fd5b50610b7c610944565b6020840135610b8a81610b0a565b81526040840135610b9a81610b0a565b60208201526060840135610bad81610b1c565b6040820152919491935090915050565b600060208284031215610bcf57600080fd5b813573ffffffffffffffffffffffffffffffffffffffff81168114610b0357600080fd5b6000808284036080811215610c0757600080fd5b8351925060607fffffffffffffffffffffffffffffffffffffffffffffffffffffffffffffffe082011215610c3b57600080fd5b50610c44610944565b6020840151610c5281610b0a565b81526040840151610c6281610b0a565b60208201526060840151610bad81610b1c565b60006020808385031215610c8857600080fd5b825167ffffffffffffffff80821115610ca057600080fd5b9084019060608287031215610cb457600080fd5b610cbc610944565b8251610cc781610b0a565b815282840151610cd681610b0a565b81850152604083015182811115610cec57600080fd5b80840193505086601f840112610d0157600080fd5b82519150610d11610a4a836109bc565b8281528785848601011115610d2557600080fd5b610d3483868301878701610a82565b60408201529695505050505050565b7f4e487b7100000000000000000000000000000000000000000000000000000000600052601160045260246000fd5b63ffffffff818116838216028082169190828114610d9257610d92610d43565b505092915050565b63ffffffff818116838216019080821115610db757610db7610d43565b5092915050565b7f4e487b7100000000000000000000000000000000000000000000000000000000600052603260045260246000fd5b82815260406020820152600063ffffffff80845116604084015280602085015116606084015250604083015160606080840152610e2d60a0840182610aa6565b95945050505050565b600060208284031215610e4857600080fd5b81518015158114610b0357600080fd5b600060408284031215610e6a57600080fd5b6040516040810181811067ffffffffffffffff82111715610e8d57610e8d610915565b604052825181526020928301519281019290925250919050565b8082018082111561085b5761085b610d43565b60006020808385031215610ecd57600080fd5b825167ffffffffffffffff80821115610ee557600080fd5b818501915085601f830112610ef957600080fd5b815181811115610f0b57610f0b610915565b8060051b9150610f1c84830161096d565b8181529183018401918481019088841115610f3657600080fd5b938501935b83851015610f5457845182529385019390850190610f3b565b9897505050505050505056fea26469706673582212206a874daa0cd04bb3fc202fa20ac410ab9c2be893966570dc926ce4f321a01eb464736f6c63430008130033",
    "linkReferences": {}
  },
  "methodIdentifiers": {
    "execute(bytes)": "09c5eabe",
    "executeTyped(uint256,(uint32,uint32,uint8))": "16c96344",
    "owner()": "8da5cb5b",
    "transferOwnership(address)": "f2fde38b"
  },
  "id": 81
}