{
  "abi": [
    {
      "inputs": [
        {
          "internalType": "contract IWorld",
          "name": "_world",
          "type": "address"
        },
        {
          "internalType": "address",
          "name": "_components",
          "type": "address"
        }
      ],
      "stateMutability": "nonpayable",
      "type": "constructor"
    },
    {
      "inputs": [],
      "name": "Ownable__NotOwner",
      "type": "error"
    },
    {
      "inputs": [],
      "name": "Ownable__NotTransitiveOwner",
      "type": "error"
    },
    {
      "anonymous": false,
      "inputs": [
        {
          "indexed": true,
          "internalType": "address",
          "name": "previousOwner",
          "type": "address"
        },
        {
          "indexed": true,
          "internalType": "address",
          "name": "newOwner",
          "type": "address"
        }
      ],
      "name": "OwnershipTransferred",
      "type": "event"
    },
    {
      "inputs": [
        {
          "internalType": "bytes",
          "name": "args",
          "type": "bytes"
        }
      ],
      "name": "execute",
      "outputs": [
        {
          "internalType": "bytes",
          "name": "",
          "type": "bytes"
        }
      ],
      "stateMutability": "nonpayable",
      "type": "function"
    },
    {
      "inputs": [
        {
          "internalType": "uint256",
          "name": "entity",
          "type": "uint256"
        },
        {
          "components": [
            {
              "internalType": "uint32",
              "name": "x",
              "type": "uint32"
            },
            {
              "internalType": "uint32",
              "name": "y",
              "type": "uint32"
            },
            {
              "internalType": "uint8",
              "name": "color",
              "type": "uint8"
            }
          ],
          "internalType": "struct Color",
          "name": "placeConfig",
          "type": "tuple"
        }
      ],
      "name": "executeTyped",
      "outputs": [
        {
          "internalType": "bytes",
          "name": "",
          "type": "bytes"
        }
      ],
      "stateMutability": "nonpayable",
      "type": "function"
    },
    {
      "inputs": [],
      "name": "owner",
      "outputs": [
        {
          "internalType": "address",
          "name": "",
          "type": "address"
        }
      ],
      "stateMutability": "view",
      "type": "function"
    },
    {
      "inputs": [
        {
          "internalType": "address",
          "name": "account",
          "type": "address"
        }
      ],
      "name": "transferOwnership",
      "outputs": [],
      "stateMutability": "nonpayable",
      "type": "function"
    }
  ],
  "bytecode": {
    "object": "0x60806040523480156200001157600080fd5b506040516200117e3803806200117e8339810160408190526200003491620001dc565b8181620000413362000149565b6001600160a01b03811615620000585780620000bd565b816001600160a01b031663ba62fbe46040518163ffffffff1660e01b8152600401602060405180830381865afa15801562000097573d6000803e3d6000fd5b505050506040513d601f19601f82011682018060405250810190620000bd91906200021b565b600080546001600160a01b039283166001600160a01b0319918216811790925560018054938616938216841790557ff67304f10c7772c78e439bc5cb07781db345424de8878c18100fdaa64d197a87805482169093179092557ff67304f10c7772c78e439bc5cb07781db345424de8878c18100fdaa64d197a8680549092161790555050505062000242565b7f8a22373512790c48b83a1fe2efdd2888d4a917bcdc24d0adf63e60f67168046080546040516001600160a01b038481169216907f8be0079c531659141344cd1fd0a4f28419497f9722a3daafe3b4186f6b6457e090600090a380546001600160a01b0319166001600160a01b0392909216919091179055565b6001600160a01b0381168114620001d957600080fd5b50565b60008060408385031215620001f057600080fd5b8251620001fd81620001c3565b60208401519092506200021081620001c3565b809150509250929050565b6000602082840312156200022e57600080fd5b81516200023b81620001c3565b9392505050565b610f2c80620002526000396000f3fe608060405234801561001057600080fd5b506004361061004c5760003560e01c806309c5eabe1461005157806316c963441461007a5780638da5cb5b1461008d578063f2fde38b146100ba575b600080fd5b61006461005f366004610998565b6100cf565b6040516100719190610a86565b60405180910390f35b610064610088366004610ac1565b6100fe565b6100956105e8565b60405173ffffffffffffffffffffffffffffffffffffffff9091168152602001610071565b6100cd6100c8366004610b53565b61062d565b005b6060600080838060200190518101906100e89190610b89565b915091506100f682826100fe565b949350505050565b60008054606091906101469073ffffffffffffffffffffffffffffffffffffffff167f8666b156e97db678d48e9d3087169adffba38e0e82594befe63d39198523bb3a6106a9565b6040517f0ff4c9160000000000000000000000000000000000000000000000000000000081526004810186905290915060009073ffffffffffffffffffffffffffffffffffffffff831690630ff4c91690602401600060405180830381865afa1580156101b7573d6000803e3d6000fd5b505050506040513d6000823e601f3d9081017fffffffffffffffffffffffffffffffffffffffffffffffffffffffffffffffe01682016040526101fd9190810190610c0b565b9050836040015160f81b81604001518560000151836000015187602001516102259190610d08565b61022f9190610d30565b63ffffffff168151811061024557610245610d54565b60200101907effffffffffffffffffffffffffffffffffffffffffffffffffffffffffffff1916908160001a9053506040517f1860407a00000000000000000000000000000000000000000000000000000000815273ffffffffffffffffffffffffffffffffffffffff831690631860407a906102c89088908590600401610d83565b600060405180830381600087803b1580156102e257600080fd5b505af11580156102f6573d6000803e3d6000fd5b5050505060006103193373ffffffffffffffffffffffffffffffffffffffff1690565b60008054919250906103619073ffffffffffffffffffffffffffffffffffffffff167f8900e57ac2ff61c328bbaa69d2071a542ae5ff48c693375a49fd2937c1ef83326106a9565b6040517fcccf7a8e0000000000000000000000000000000000000000000000000000000081526004810184905290915060009073ffffffffffffffffffffffffffffffffffffffff83169063cccf7a8e90602401602060405180830381865afa1580156103d2573d6000803e3d6000fd5b505050506040513d601f19601f820116820180604052508101906103f69190610dcc565b6104165760405180604001604052806000815260200160008152506104a4565b6040517f0ff4c9160000000000000000000000000000000000000000000000000000000081526004810184905273ffffffffffffffffffffffffffffffffffffffff831690630ff4c916906024016040805180830381865afa158015610480573d6000803e3d6000fd5b505050506040513d601f19601f820116820180604052508101906104a49190610dee565b80516020820151919250906104ba90600a610e3d565b4211610527576040517f08c379a000000000000000000000000000000000000000000000000000000000815260206004820152601a60248201527f596f75207374696c6c2068617665206120636f6f6c646f776e2100000000000060448201526064015b60405180910390fd5b8273ffffffffffffffffffffffffffffffffffffffff16638bbf68fe85604051806040016040528085600161055c9190610e3d565b8152426020918201526040517fffffffff0000000000000000000000000000000000000000000000000000000060e086901b16815260048101939093528151602484015201516044820152606401600060405180830381600087803b1580156105c457600080fd5b505af11580156105d8573d6000803e3d6000fd5b5050505050505050505092915050565b60006106287f8a22373512790c48b83a1fe2efdd2888d4a917bcdc24d0adf63e60f6716804605473ffffffffffffffffffffffffffffffffffffffff1690565b905090565b7f8a22373512790c48b83a1fe2efdd2888d4a917bcdc24d0adf63e60f6716804605473ffffffffffffffffffffffffffffffffffffffff16331461069d576040517f2f7a8ee100000000000000000000000000000000000000000000000000000000815260040160405180910390fd5b6106a6816107f7565b50565b6040517ffbdfa1ea00000000000000000000000000000000000000000000000000000000815260048101829052600090819073ffffffffffffffffffffffffffffffffffffffff85169063fbdfa1ea90602401600060405180830381865afa158015610719573d6000803e3d6000fd5b505050506040513d6000823e601f3d9081017fffffffffffffffffffffffffffffffffffffffffffffffffffffffffffffffe016820160405261075f9190810190610e50565b905080516000036107cc576040517f08c379a000000000000000000000000000000000000000000000000000000000815260206004820152601160248201527f6964206e6f742072656769737465726564000000000000000000000000000000604482015260640161051e565b6107ed816000815181106107e2576107e2610d54565b602002602001015190565b9150505b92915050565b7f8a22373512790c48b83a1fe2efdd2888d4a917bcdc24d0adf63e60f67168046080546040516106a6928492909173ffffffffffffffffffffffffffffffffffffffff8085169216907f8be0079c531659141344cd1fd0a4f28419497f9722a3daafe3b4186f6b6457e090600090a380547fffffffffffffffffffffffff00000000000000000000000000000000000000001673ffffffffffffffffffffffffffffffffffffffff92909216919091179055565b7f4e487b7100000000000000000000000000000000000000000000000000000000600052604160045260246000fd5b6040516060810167ffffffffffffffff811182821017156108fd576108fd6108ab565b60405290565b604051601f82017fffffffffffffffffffffffffffffffffffffffffffffffffffffffffffffffe016810167ffffffffffffffff8111828210171561094a5761094a6108ab565b604052919050565b600067ffffffffffffffff82111561096c5761096c6108ab565b50601f017fffffffffffffffffffffffffffffffffffffffffffffffffffffffffffffffe01660200190565b6000602082840312156109aa57600080fd5b813567ffffffffffffffff8111156109c157600080fd5b8201601f810184136109d257600080fd5b80356109e56109e082610952565b610903565b8181528560208385010111156109fa57600080fd5b81602084016020830137600091810160200191909152949350505050565b60005b83811015610a33578181015183820152602001610a1b565b50506000910152565b60008151808452610a54816020860160208601610a18565b601f017fffffffffffffffffffffffffffffffffffffffffffffffffffffffffffffffe0169290920160200192915050565b602081526000610a996020830184610a3c565b9392505050565b63ffffffff811681146106a657600080fd5b60ff811681146106a657600080fd5b6000808284036080811215610ad557600080fd5b8335925060607fffffffffffffffffffffffffffffffffffffffffffffffffffffffffffffffe082011215610b0957600080fd5b50610b126108da565b6020840135610b2081610aa0565b81526040840135610b3081610aa0565b60208201526060840135610b4381610ab2565b6040820152919491935090915050565b600060208284031215610b6557600080fd5b813573ffffffffffffffffffffffffffffffffffffffff81168114610a9957600080fd5b6000808284036080811215610b9d57600080fd5b8351925060607fffffffffffffffffffffffffffffffffffffffffffffffffffffffffffffffe082011215610bd157600080fd5b50610bda6108da565b6020840151610be881610aa0565b81526040840151610bf881610aa0565b60208201526060840151610b4381610ab2565b60006020808385031215610c1e57600080fd5b825167ffffffffffffffff80821115610c3657600080fd5b9084019060608287031215610c4a57600080fd5b610c526108da565b8251610c5d81610aa0565b815282840151610c6c81610aa0565b81850152604083015182811115610c8257600080fd5b80840193505086601f840112610c9757600080fd5b82519150610ca76109e083610952565b8281528785848601011115610cbb57600080fd5b610cca83868301878701610a18565b60408201529695505050505050565b7f4e487b7100000000000000000000000000000000000000000000000000000000600052601160045260246000fd5b63ffffffff818116838216028082169190828114610d2857610d28610cd9565b505092915050565b63ffffffff818116838216019080821115610d4d57610d4d610cd9565b5092915050565b7f4e487b7100000000000000000000000000000000000000000000000000000000600052603260045260246000fd5b82815260406020820152600063ffffffff80845116604084015280602085015116606084015250604083015160606080840152610dc360a0840182610a3c565b95945050505050565b600060208284031215610dde57600080fd5b81518015158114610a9957600080fd5b600060408284031215610e0057600080fd5b6040516040810181811067ffffffffffffffff82111715610e2357610e236108ab565b604052825181526020928301519281019290925250919050565b808201808211156107f1576107f1610cd9565b60006020808385031215610e6357600080fd5b825167ffffffffffffffff80821115610e7b57600080fd5b818501915085601f830112610e8f57600080fd5b815181811115610ea157610ea16108ab565b8060051b9150610eb2848301610903565b8181529183018401918481019088841115610ecc57600080fd5b938501935b83851015610eea57845182529385019390850190610ed1565b9897505050505050505056fea2646970667358221220e0602e8f63ea5a3a23ef6c6416e72d6d04d4805f0feb781dcf805f02183b624d64736f6c63430008130033",
    "linkReferences": {}
  },
  "methodIdentifiers": {
    "execute(bytes)": "09c5eabe",
    "executeTyped(uint256,(uint32,uint32,uint8))": "16c96344",
    "owner()": "8da5cb5b",
    "transferOwnership(address)": "f2fde38b"
  },
  "id": 81
}