{
  "abi": [
    {
      "inputs": [
        {
          "internalType": "contract IWorld",
          "name": "_world",
          "type": "address"
        },
        {
          "internalType": "address",
          "name": "_components",
          "type": "address"
        }
      ],
      "stateMutability": "nonpayable",
      "type": "constructor"
    },
    {
      "inputs": [],
      "name": "Ownable__NotOwner",
      "type": "error"
    },
    {
      "inputs": [],
      "name": "Ownable__NotTransitiveOwner",
      "type": "error"
    },
    {
      "anonymous": false,
      "inputs": [
        {
          "indexed": true,
          "internalType": "address",
          "name": "previousOwner",
          "type": "address"
        },
        {
          "indexed": true,
          "internalType": "address",
          "name": "newOwner",
          "type": "address"
        }
      ],
      "name": "OwnershipTransferred",
      "type": "event"
    },
    {
      "inputs": [
        {
          "internalType": "bytes",
          "name": "args",
          "type": "bytes"
        }
      ],
      "name": "execute",
      "outputs": [
        {
          "internalType": "bytes",
          "name": "",
          "type": "bytes"
        }
      ],
      "stateMutability": "nonpayable",
      "type": "function"
    },
    {
      "inputs": [
        {
          "components": [
            {
              "internalType": "uint32",
              "name": "x",
              "type": "uint32"
            },
            {
              "internalType": "uint32",
              "name": "y",
              "type": "uint32"
            },
            {
              "internalType": "uint8",
              "name": "color",
              "type": "uint8"
            }
          ],
          "internalType": "struct Color",
          "name": "placeConfig",
          "type": "tuple"
        }
      ],
      "name": "executeTyped",
      "outputs": [
        {
          "internalType": "bytes",
          "name": "",
          "type": "bytes"
        }
      ],
      "stateMutability": "nonpayable",
      "type": "function"
    },
    {
      "inputs": [],
      "name": "owner",
      "outputs": [
        {
          "internalType": "address",
          "name": "",
          "type": "address"
        }
      ],
      "stateMutability": "view",
      "type": "function"
    },
    {
      "inputs": [
        {
          "internalType": "address",
          "name": "account",
          "type": "address"
        }
      ],
      "name": "transferOwnership",
      "outputs": [],
      "stateMutability": "nonpayable",
      "type": "function"
    }
  ],
  "bytecode": {
    "object": "0x608060405234801561001057600080fd5b50604051610d4b380380610d4b83398101604081905261002f916101ce565b818161003a3361013c565b6001600160a01b0381161561004f57806100b1565b816001600160a01b031663ba62fbe46040518163ffffffff1660e01b8152600401602060405180830381865afa15801561008d573d6000803e3d6000fd5b505050506040513d601f19601f820116820180604052508101906100b19190610208565b600080546001600160a01b039283166001600160a01b0319918216811790925560018054938616938216841790557ff67304f10c7772c78e439bc5cb07781db345424de8878c18100fdaa64d197a87805482169093179092557ff67304f10c7772c78e439bc5cb07781db345424de8878c18100fdaa64d197a8680549092161790555050505061022c565b7f8a22373512790c48b83a1fe2efdd2888d4a917bcdc24d0adf63e60f67168046080546040516001600160a01b038481169216907f8be0079c531659141344cd1fd0a4f28419497f9722a3daafe3b4186f6b6457e090600090a380546001600160a01b0319166001600160a01b0392909216919091179055565b6001600160a01b03811681146101cb57600080fd5b50565b600080604083850312156101e157600080fd5b82516101ec816101b6565b60208401519092506101fd816101b6565b809150509250929050565b60006020828403121561021a57600080fd5b8151610225816101b6565b9392505050565b610b108061023b6000396000f3fe608060405234801561001057600080fd5b506004361061004c5760003560e01c806309c5eabe146100515780638da5cb5b1461007a57806398b59651146100a7578063f2fde38b146100ba575b600080fd5b61006461005f366004610688565b6100cf565b6040516100719190610776565b60405180910390f35b6100826100ee565b60405173ffffffffffffffffffffffffffffffffffffffff9091168152602001610071565b6100646100b53660046107b1565b610133565b6100cd6100c8366004610805565b61031b565b005b60606100e8828060200190518101906100b5919061083b565b92915050565b600061012e7f8a22373512790c48b83a1fe2efdd2888d4a917bcdc24d0adf63e60f6716804605473ffffffffffffffffffffffffffffffffffffffff1690565b905090565b600080546060919061017b9073ffffffffffffffffffffffffffffffffffffffff167f8666b156e97db678d48e9d3087169adffba38e0e82594befe63d39198523bb3a610397565b905060008173ffffffffffffffffffffffffffffffffffffffff1663209652556040518163ffffffff1660e01b8152600401600060405180830381865afa1580156101ca573d6000803e3d6000fd5b505050506040513d6000823e601f3d9081017fffffffffffffffffffffffffffffffffffffffffffffffffffffffffffffffe01682016040526102109190810190610883565b8051855160208701516040808901519085015194955092939192909160f89190911b908361023e8685610980565b61024891906109a8565b63ffffffff168151811061025e5761025e6109cc565b60200101907effffffffffffffffffffffffffffffffffffffffffffffffffffffffffffff1916908160001a9053506040517f5a9b814000000000000000000000000000000000000000000000000000000000815273ffffffffffffffffffffffffffffffffffffffff861690635a9b8140906102df9087906004016109fb565b600060405180830381600087803b1580156102f957600080fd5b505af115801561030d573d6000803e3d6000fd5b505050505050505050919050565b7f8a22373512790c48b83a1fe2efdd2888d4a917bcdc24d0adf63e60f6716804605473ffffffffffffffffffffffffffffffffffffffff16331461038b576040517f2f7a8ee100000000000000000000000000000000000000000000000000000000815260040160405180910390fd5b610394816104e7565b50565b6040517ffbdfa1ea00000000000000000000000000000000000000000000000000000000815260048101829052600090819073ffffffffffffffffffffffffffffffffffffffff85169063fbdfa1ea90602401600060405180830381865afa158015610407573d6000803e3d6000fd5b505050506040513d6000823e601f3d9081017fffffffffffffffffffffffffffffffffffffffffffffffffffffffffffffffe016820160405261044d9190810190610a34565b905080516000036104be576040517f08c379a000000000000000000000000000000000000000000000000000000000815260206004820152601160248201527f6964206e6f742072656769737465726564000000000000000000000000000000604482015260640160405180910390fd5b6104df816000815181106104d4576104d46109cc565b602002602001015190565b949350505050565b7f8a22373512790c48b83a1fe2efdd2888d4a917bcdc24d0adf63e60f6716804608054604051610394928492909173ffffffffffffffffffffffffffffffffffffffff8085169216907f8be0079c531659141344cd1fd0a4f28419497f9722a3daafe3b4186f6b6457e090600090a380547fffffffffffffffffffffffff00000000000000000000000000000000000000001673ffffffffffffffffffffffffffffffffffffffff92909216919091179055565b7f4e487b7100000000000000000000000000000000000000000000000000000000600052604160045260246000fd5b6040516060810167ffffffffffffffff811182821017156105ed576105ed61059b565b60405290565b604051601f82017fffffffffffffffffffffffffffffffffffffffffffffffffffffffffffffffe016810167ffffffffffffffff8111828210171561063a5761063a61059b565b604052919050565b600067ffffffffffffffff82111561065c5761065c61059b565b50601f017fffffffffffffffffffffffffffffffffffffffffffffffffffffffffffffffe01660200190565b60006020828403121561069a57600080fd5b813567ffffffffffffffff8111156106b157600080fd5b8201601f810184136106c257600080fd5b80356106d56106d082610642565b6105f3565b8181528560208385010111156106ea57600080fd5b81602084016020830137600091810160200191909152949350505050565b60005b8381101561072357818101518382015260200161070b565b50506000910152565b60008151808452610744816020860160208601610708565b601f017fffffffffffffffffffffffffffffffffffffffffffffffffffffffffffffffe0169290920160200192915050565b602081526000610789602083018461072c565b9392505050565b63ffffffff8116811461039457600080fd5b60ff8116811461039457600080fd5b6000606082840312156107c357600080fd5b6107cb6105ca565b82356107d681610790565b815260208301356107e681610790565b602082015260408301356107f9816107a2565b60408201529392505050565b60006020828403121561081757600080fd5b813573ffffffffffffffffffffffffffffffffffffffff8116811461078957600080fd5b60006060828403121561084d57600080fd5b6108556105ca565b825161086081610790565b8152602083015161087081610790565b602082015260408301516107f9816107a2565b6000602080838503121561089657600080fd5b825167ffffffffffffffff808211156108ae57600080fd5b90840190606082870312156108c257600080fd5b6108ca6105ca565b82516108d581610790565b8152828401516108e481610790565b818501526040830151828111156108fa57600080fd5b80840193505086601f84011261090f57600080fd5b8251915061091f6106d083610642565b828152878584860101111561093357600080fd5b61094283868301878701610708565b60408201529695505050505050565b7f4e487b7100000000000000000000000000000000000000000000000000000000600052601160045260246000fd5b63ffffffff8181168382160280821691908281146109a0576109a0610951565b505092915050565b63ffffffff8181168382160190808211156109c5576109c5610951565b5092915050565b7f4e487b7100000000000000000000000000000000000000000000000000000000600052603260045260246000fd5b60208152600063ffffffff8084511660208401528060208501511660408401525060408301516060808401526104df608084018261072c565b60006020808385031215610a4757600080fd5b825167ffffffffffffffff80821115610a5f57600080fd5b818501915085601f830112610a7357600080fd5b815181811115610a8557610a8561059b565b8060051b9150610a968483016105f3565b8181529183018401918481019088841115610ab057600080fd5b938501935b83851015610ace57845182529385019390850190610ab5565b9897505050505050505056fea2646970667358221220bb6205995bb57bafcc8564b92e55aff6cafee9ce0eea8ea9a57b81f27cef0dee64736f6c63430008130033",
    "linkReferences": {}
  },
  "methodIdentifiers": {
    "execute(bytes)": "09c5eabe",
    "executeTyped((uint32,uint32,uint8))": "98b59651",
    "owner()": "8da5cb5b",
    "transferOwnership(address)": "f2fde38b"
  },
  "id": 81
}